{
  "_format": "hh-sol-artifact-1",
  "contractName": "AuctionManager",
  "sourceName": "contracts/AuctionManager.sol",
  "abi": [
    {
      "inputs": [
        {
          "internalType": "address",
          "name": "_landNFT",
          "type": "address"
        }
      ],
      "stateMutability": "nonpayable",
      "type": "constructor"
    },
    {
      "inputs": [],
      "name": "ReentrancyGuardReentrantCall",
      "type": "error"
    },
    {
      "anonymous": false,
      "inputs": [
        {
          "indexed": true,
          "internalType": "uint256",
          "name": "tokenId",
          "type": "uint256"
        }
      ],
      "name": "AuctionCancelled",
      "type": "event"
    },
    {
      "anonymous": false,
      "inputs": [
        {
          "indexed": true,
          "internalType": "uint256",
          "name": "tokenId",
          "type": "uint256"
        },
        {
          "indexed": false,
          "internalType": "address",
          "name": "winner",
          "type": "address"
        },
        {
          "indexed": false,
          "internalType": "uint256",
          "name": "amount",
          "type": "uint256"
        }
      ],
      "name": "AuctionEnded",
      "type": "event"
    },
    {
      "anonymous": false,
      "inputs": [
        {
          "indexed": true,
          "internalType": "uint256",
          "name": "tokenId",
          "type": "uint256"
        },
        {
          "indexed": false,
          "internalType": "uint256",
          "name": "newEndTime",
          "type": "uint256"
        }
      ],
      "name": "AuctionExtended",
      "type": "event"
    },
    {
      "anonymous": false,
      "inputs": [
        {
          "indexed": true,
          "internalType": "uint256",
          "name": "tokenId",
          "type": "uint256"
        },
        {
          "indexed": true,
          "internalType": "address",
          "name": "seller",
          "type": "address"
        },
        {
          "indexed": false,
          "internalType": "uint256",
          "name": "minBid",
          "type": "uint256"
        },
        {
          "indexed": false,
          "internalType": "uint256",
          "name": "endTime",
          "type": "uint256"
        }
      ],
      "name": "AuctionStarted",
      "type": "event"
    },
    {
      "anonymous": false,
      "inputs": [
        {
          "indexed": true,
          "internalType": "uint256",
          "name": "tokenId",
          "type": "uint256"
        },
        {
          "indexed": true,
          "internalType": "address",
          "name": "bidder",
          "type": "address"
        },
        {
          "indexed": false,
          "internalType": "uint256",
          "name": "amount",
          "type": "uint256"
        }
      ],
      "name": "BidPlaced",
      "type": "event"
    },
    {
      "anonymous": false,
      "inputs": [
        {
          "indexed": true,
          "internalType": "address",
          "name": "buyer",
          "type": "address"
        },
        {
          "indexed": true,
          "internalType": "uint256",
          "name": "tokenId",
          "type": "uint256"
        },
        {
          "indexed": false,
          "internalType": "uint256",
          "name": "price",
          "type": "uint256"
        }
      ],
      "name": "LandPurchased",
      "type": "event"
    },
    {
      "inputs": [
        {
          "internalType": "uint256",
          "name": "",
          "type": "uint256"
        }
      ],
      "name": "auctions",
      "outputs": [
        {
          "internalType": "address",
          "name": "seller",
          "type": "address"
        },
        {
          "internalType": "uint256",
          "name": "minBid",
          "type": "uint256"
        },
        {
          "internalType": "uint256",
          "name": "highestBid",
          "type": "uint256"
        },
        {
          "internalType": "address",
          "name": "highestBidder",
          "type": "address"
        },
        {
          "internalType": "uint256",
          "name": "endTime",
          "type": "uint256"
        },
        {
          "internalType": "bool",
          "name": "active",
          "type": "bool"
        }
      ],
      "stateMutability": "view",
      "type": "function"
    },
    {
      "inputs": [
        {
          "internalType": "uint256",
          "name": "tokenId",
          "type": "uint256"
        }
      ],
      "name": "bid",
      "outputs": [],
      "stateMutability": "payable",
      "type": "function"
    },
    {
      "inputs": [
        {
          "internalType": "uint256",
          "name": "tokenId",
          "type": "uint256"
        }
      ],
      "name": "cancelAuction",
      "outputs": [],
      "stateMutability": "nonpayable",
      "type": "function"
    },
    {
      "inputs": [
        {
          "internalType": "uint256",
          "name": "tokenId",
          "type": "uint256"
        }
      ],
      "name": "cancelLandSale",
      "outputs": [],
      "stateMutability": "nonpayable",
      "type": "function"
    },
    {
      "inputs": [
        {
          "internalType": "uint256",
          "name": "tokenId",
          "type": "uint256"
        }
      ],
      "name": "endAuction",
      "outputs": [],
      "stateMutability": "nonpayable",
      "type": "function"
    },
    {
      "inputs": [
        {
          "internalType": "uint256",
          "name": "",
          "type": "uint256"
        }
      ],
      "name": "forSale",
      "outputs": [
        {
          "internalType": "bool",
          "name": "",
          "type": "bool"
        }
      ],
      "stateMutability": "view",
      "type": "function"
    },
    {
      "inputs": [],
      "name": "landNFT",
      "outputs": [
        {
          "internalType": "contract ILandNFT",
          "name": "",
          "type": "address"
        }
      ],
      "stateMutability": "view",
      "type": "function"
    },
    {
      "inputs": [
        {
          "internalType": "uint256",
          "name": "",
          "type": "uint256"
        }
      ],
      "name": "landPrices",
      "outputs": [
        {
          "internalType": "uint256",
          "name": "",
          "type": "uint256"
        }
      ],
      "stateMutability": "view",
      "type": "function"
    },
    {
      "inputs": [
        {
          "internalType": "uint256",
          "name": "tokenId",
          "type": "uint256"
        },
        {
          "internalType": "uint256",
          "name": "price",
          "type": "uint256"
        }
      ],
      "name": "listLandForSale",
      "outputs": [],
      "stateMutability": "nonpayable",
      "type": "function"
    },
    {
      "inputs": [
        {
          "internalType": "address",
          "name": "",
          "type": "address"
        },
        {
          "internalType": "address",
          "name": "",
          "type": "address"
        },
        {
          "internalType": "uint256",
          "name": "",
          "type": "uint256"
        },
        {
          "internalType": "bytes",
          "name": "",
          "type": "bytes"
        }
      ],
      "name": "onERC721Received",
      "outputs": [
        {
          "internalType": "bytes4",
          "name": "",
          "type": "bytes4"
        }
      ],
      "stateMutability": "nonpayable",
      "type": "function"
    },
    {
      "inputs": [
        {
          "internalType": "uint256",
          "name": "tokenId",
          "type": "uint256"
        }
      ],
      "name": "purchaseLand",
      "outputs": [],
      "stateMutability": "payable",
      "type": "function"
    },
    {
      "inputs": [],
      "name": "royaltyNFT",
      "outputs": [
        {
          "internalType": "contract IERC2981",
          "name": "",
          "type": "address"
        }
      ],
      "stateMutability": "view",
      "type": "function"
    },
    {
      "inputs": [
        {
          "internalType": "uint256",
          "name": "tokenId",
          "type": "uint256"
        },
        {
          "internalType": "uint256",
          "name": "minBid",
          "type": "uint256"
        },
        {
          "internalType": "uint256",
          "name": "duration",
          "type": "uint256"
        }
      ],
      "name": "startAuction",
      "outputs": [],
      "stateMutability": "nonpayable",
      "type": "function"
    },
    {
      "inputs": [],
      "name": "timeBuffer",
      "outputs": [
        {
          "internalType": "uint256",
          "name": "",
          "type": "uint256"
        }
      ],
      "stateMutability": "view",
      "type": "function"
    }
  ],
  "bytecode": "0x608060405234801561001057600080fd5b5060405161296d38038061296d83398181016040528101906100329190610125565b600160008190555080600160006101000a81548173ffffffffffffffffffffffffffffffffffffffff021916908373ffffffffffffffffffffffffffffffffffffffff16021790555080600260006101000a81548173ffffffffffffffffffffffffffffffffffffffff021916908373ffffffffffffffffffffffffffffffffffffffff16021790555050610152565b600080fd5b600073ffffffffffffffffffffffffffffffffffffffff82169050919050565b60006100f2826100c7565b9050919050565b610102816100e7565b811461010d57600080fd5b50565b60008151905061011f816100f9565b92915050565b60006020828403121561013b5761013a6100c2565b5b600061014984828501610110565b91505092915050565b61280c806101616000396000f3fe6080604052600436106100dd5760003560e01c80638009d5d71161007f578063b9a2de3a11610059578063b9a2de3a146102bb578063e87596c0146102e4578063ec91f2a41461030d578063fd1a8fef14610338576100dd565b80638009d5d71461024d57806391e078bb1461026957806396b5a75514610292576100dd565b806339d022e1116100bb57806339d022e114610187578063454a2ab3146101b2578063571a26a0146101ce5780637bb2d6db14610210576100dd565b8063150b7a02146100e25780632831f2f41461011f5780633663f9631461015c575b600080fd5b3480156100ee57600080fd5b5061010960048036038101906101049190611d73565b610361565b6040516101169190611e31565b60405180910390f35b34801561012b57600080fd5b5061014660048036038101906101419190611e4c565b610375565b6040516101539190611e94565b60405180910390f35b34801561016857600080fd5b50610171610395565b60405161017e9190611f0e565b60405180910390f35b34801561019357600080fd5b5061019c6103bb565b6040516101a99190611f4a565b60405180910390f35b6101cc60048036038101906101c79190611e4c565b6103e1565b005b3480156101da57600080fd5b506101f560048036038101906101f09190611e4c565b6106ff565b60405161020796959493929190611f83565b60405180910390f35b34801561021c57600080fd5b5061023760048036038101906102329190611e4c565b610788565b6040516102449190611fe4565b60405180910390f35b61026760048036038101906102629190611e4c565b6107a0565b005b34801561027557600080fd5b50610290600480360381019061028b9190611fff565b610c5e565b005b34801561029e57600080fd5b506102b960048036038101906102b49190611e4c565b611051565b005b3480156102c757600080fd5b506102e260048036038101906102dd9190611e4c565b6112f1565b005b3480156102f057600080fd5b5061030b60048036038101906103069190611e4c565b61184a565b005b34801561031957600080fd5b5061032261199b565b60405161032f9190611fe4565b60405180910390f35b34801561034457600080fd5b5061035f600480360381019061035a9190612052565b6119a1565b005b600063150b7a0260e01b9050949350505050565b60056020528060005260406000206000915054906101000a900460ff1681565b600260009054906101000a900473ffffffffffffffffffffffffffffffffffffffff1681565b600160009054906101000a900473ffffffffffffffffffffffffffffffffffffffff1681565b6103e9611b35565b60006003600083815260200190815260200160002090508060050160009054906101000a900460ff16610451576040517f08c379a0000000000000000000000000000000000000000000000000000000008152600401610448906120ef565b60405180910390fd5b80600401544210610497576040517f08c379a000000000000000000000000000000000000000000000000000000000815260040161048e9061215b565b60405180910390fd5b80600101543410156104de576040517f08c379a00000000000000000000000000000000000000000000000000000000081526004016104d5906121c7565b60405180910390fd5b80600201543411610524576040517f08c379a000000000000000000000000000000000000000000000000000000000815260040161051b90612233565b60405180910390fd5b600073ffffffffffffffffffffffffffffffffffffffff168160030160009054906101000a900473ffffffffffffffffffffffffffffffffffffffff1673ffffffffffffffffffffffffffffffffffffffff16146105ec578060030160009054906101000a900473ffffffffffffffffffffffffffffffffffffffff1673ffffffffffffffffffffffffffffffffffffffff166108fc82600201549081150290604051600060405180830381858888f193505050501580156105ea573d6000803e3d6000fd5b505b348160020181905550338160030160006101000a81548173ffffffffffffffffffffffffffffffffffffffff021916908373ffffffffffffffffffffffffffffffffffffffff1602179055503373ffffffffffffffffffffffffffffffffffffffff16827f0e54eff26401bf69b81b26f60bd85ef47f5d85275c1d268d84f68d6897431c473460405161067f9190611fe4565b60405180910390a361025842826004015461069a9190612282565b10156106f357610258426106ae91906122b6565b8160040181905550817f6e912a3a9105bdd2af817ba5adc14e6c127c1035b5b648faa29ca0d58ab8ff4e82600401546040516106ea9190611fe4565b60405180910390a25b506106fc611b7b565b50565b60036020528060005260406000206000915090508060000160009054906101000a900473ffffffffffffffffffffffffffffffffffffffff16908060010154908060020154908060030160009054906101000a900473ffffffffffffffffffffffffffffffffffffffff16908060040154908060050160009054906101000a900460ff16905086565b60046020528060005260406000206000915090505481565b6107a8611b35565b6005600082815260200190815260200160002060009054906101000a900460ff16610808576040517f08c379a00000000000000000000000000000000000000000000000000000000081526004016107ff90612336565b60405180910390fd5b60006004600083815260200190815260200160002054905080341015610863576040517f08c379a000000000000000000000000000000000000000000000000000000000815260040161085a906123a2565b60405180910390fd5b6000600160009054906101000a900473ffffffffffffffffffffffffffffffffffffffff1673ffffffffffffffffffffffffffffffffffffffff16636352211e846040518263ffffffff1660e01b81526004016108c09190611fe4565b602060405180830381865afa1580156108dd573d6000803e3d6000fd5b505050506040513d601f19601f8201168201806040525081019061090191906123d7565b905060006005600085815260200190815260200160002060006101000a81548160ff02191690831515021790555060006004600085815260200190815260200160002081905550600160009054906101000a900473ffffffffffffffffffffffffffffffffffffffff1673ffffffffffffffffffffffffffffffffffffffff166342842e0e8233866040518463ffffffff1660e01b81526004016109a793929190612404565b600060405180830381600087803b1580156109c157600080fd5b505af11580156109d5573d6000803e3d6000fd5b50505050600080600260009054906101000a900473ffffffffffffffffffffffffffffffffffffffff1673ffffffffffffffffffffffffffffffffffffffff16632a55205a86866040518363ffffffff1660e01b8152600401610a3992919061243b565b6040805180830381865afa158015610a55573d6000803e3d6000fd5b505050506040513d601f19601f82011682018060405250810190610a799190612479565b91509150600081118015610aba5750600073ffffffffffffffffffffffffffffffffffffffff168273ffffffffffffffffffffffffffffffffffffffff1614155b15610b5d578173ffffffffffffffffffffffffffffffffffffffff166108fc829081150290604051600060405180830381858888f19350505050158015610b05573d6000803e3d6000fd5b508273ffffffffffffffffffffffffffffffffffffffff166108fc8286610b2c9190612282565b9081150290604051600060405180830381858888f19350505050158015610b57573d6000803e3d6000fd5b50610ba5565b8273ffffffffffffffffffffffffffffffffffffffff166108fc859081150290604051600060405180830381858888f19350505050158015610ba3573d6000803e3d6000fd5b505b843373ffffffffffffffffffffffffffffffffffffffff167f556f8be3f6ef9de42afc6418362fb38769c654c735ebd1b91f52722ce948121b86604051610bec9190611fe4565b60405180910390a383341115610c4f573373ffffffffffffffffffffffffffffffffffffffff166108fc8534610c229190612282565b9081150290604051600060405180830381858888f19350505050158015610c4d573d6000803e3d6000fd5b505b50505050610c5b611b7b565b50565b3373ffffffffffffffffffffffffffffffffffffffff16600160009054906101000a900473ffffffffffffffffffffffffffffffffffffffff1673ffffffffffffffffffffffffffffffffffffffff16636352211e856040518263ffffffff1660e01b8152600401610cd09190611fe4565b602060405180830381865afa158015610ced573d6000803e3d6000fd5b505050506040513d601f19601f82011682018060405250810190610d1191906123d7565b73ffffffffffffffffffffffffffffffffffffffff1614610d67576040517f08c379a0000000000000000000000000000000000000000000000000000000008152600401610d5e90612505565b60405180910390fd5b600015156003600085815260200190815260200160002060050160009054906101000a900460ff16151514610dd1576040517f08c379a0000000000000000000000000000000000000000000000000000000008152600401610dc890612571565b60405180910390fd5b60008111610e14576040517f08c379a0000000000000000000000000000000000000000000000000000000008152600401610e0b906125dd565b60405180910390fd5b600160009054906101000a900473ffffffffffffffffffffffffffffffffffffffff1673ffffffffffffffffffffffffffffffffffffffff166342842e0e3330866040518463ffffffff1660e01b8152600401610e7393929190612404565b600060405180830381600087803b158015610e8d57600080fd5b505af1158015610ea1573d6000803e3d6000fd5b505050506040518060c001604052803373ffffffffffffffffffffffffffffffffffffffff16815260200183815260200160008152602001600073ffffffffffffffffffffffffffffffffffffffff1681526020018242610f0291906122b6565b8152602001600115158152506003600085815260200190815260200160002060008201518160000160006101000a81548173ffffffffffffffffffffffffffffffffffffffff021916908373ffffffffffffffffffffffffffffffffffffffff160217905550602082015181600101556040820151816002015560608201518160030160006101000a81548173ffffffffffffffffffffffffffffffffffffffff021916908373ffffffffffffffffffffffffffffffffffffffff1602179055506080820151816004015560a08201518160050160006101000a81548160ff0219169083151502179055509050503373ffffffffffffffffffffffffffffffffffffffff16837fbf6dc7bdf2f23af5a506fe03ee1221f47d023a2227fbc949c6b812ae44534e6d84844261103691906122b6565b60405161104492919061243b565b60405180910390a3505050565b611059611b35565b60006003600083815260200190815260200160002090508060050160009054906101000a900460ff166110c1576040517f08c379a00000000000000000000000000000000000000000000000000000000081526004016110b8906120ef565b60405180910390fd5b3373ffffffffffffffffffffffffffffffffffffffff168160000160009054906101000a900473ffffffffffffffffffffffffffffffffffffffff1673ffffffffffffffffffffffffffffffffffffffff1614611153576040517f08c379a000000000000000000000000000000000000000000000000000000000815260040161114a90612649565b60405180910390fd5b600073ffffffffffffffffffffffffffffffffffffffff168160030160009054906101000a900473ffffffffffffffffffffffffffffffffffffffff1673ffffffffffffffffffffffffffffffffffffffff16146111e6576040517f08c379a00000000000000000000000000000000000000000000000000000000081526004016111dd906126b5565b60405180910390fd5b60008160050160006101000a81548160ff021916908315150217905550600160009054906101000a900473ffffffffffffffffffffffffffffffffffffffff1673ffffffffffffffffffffffffffffffffffffffff166342842e0e308360000160009054906101000a900473ffffffffffffffffffffffffffffffffffffffff16856040518463ffffffff1660e01b815260040161128693929190612404565b600060405180830381600087803b1580156112a057600080fd5b505af11580156112b4573d6000803e3d6000fd5b50505050817f2809c7e17bf978fbc7194c0a694b638c4215e9140cacc6c38ca36010b45697df60405160405180910390a2506112ee611b7b565b50565b6112f9611b35565b60006003600083815260200190815260200160002090508060050160009054906101000a900460ff16611361576040517f08c379a0000000000000000000000000000000000000000000000000000000008152600401611358906120ef565b60405180910390fd5b80600401544210156113a8576040517f08c379a000000000000000000000000000000000000000000000000000000000815260040161139f90612721565b60405180910390fd5b60008160050160006101000a81548160ff021916908315150217905550600073ffffffffffffffffffffffffffffffffffffffff168160030160009054906101000a900473ffffffffffffffffffffffffffffffffffffffff1673ffffffffffffffffffffffffffffffffffffffff161461175b57600160009054906101000a900473ffffffffffffffffffffffffffffffffffffffff1673ffffffffffffffffffffffffffffffffffffffff166342842e0e308360030160009054906101000a900473ffffffffffffffffffffffffffffffffffffffff16856040518463ffffffff1660e01b81526004016114a093929190612404565b600060405180830381600087803b1580156114ba57600080fd5b505af11580156114ce573d6000803e3d6000fd5b50505050600080600260009054906101000a900473ffffffffffffffffffffffffffffffffffffffff1673ffffffffffffffffffffffffffffffffffffffff16632a55205a8585600201546040518363ffffffff1660e01b815260040161153692919061243b565b6040805180830381865afa158015611552573d6000803e3d6000fd5b505050506040513d601f19601f820116820180604052508101906115769190612479565b915091506000811180156115b75750600073ffffffffffffffffffffffffffffffffffffffff168273ffffffffffffffffffffffffffffffffffffffff1614155b15611682578173ffffffffffffffffffffffffffffffffffffffff166108fc829081150290604051600060405180830381858888f19350505050158015611602573d6000803e3d6000fd5b508260000160009054906101000a900473ffffffffffffffffffffffffffffffffffffffff1673ffffffffffffffffffffffffffffffffffffffff166108fc8285600201546116519190612282565b9081150290604051600060405180830381858888f1935050505015801561167c573d6000803e3d6000fd5b506116f2565b8260000160009054906101000a900473ffffffffffffffffffffffffffffffffffffffff1673ffffffffffffffffffffffffffffffffffffffff166108fc84600201549081150290604051600060405180830381858888f193505050501580156116f0573d6000803e3d6000fd5b505b837fd2aa34a4fdbbc6dff6a3e56f46e0f3ae2a31d7785ff3487aa5c95c642acea5018460030160009054906101000a900473ffffffffffffffffffffffffffffffffffffffff16856002015460405161174c929190612741565b60405180910390a2505061183e565b600160009054906101000a900473ffffffffffffffffffffffffffffffffffffffff1673ffffffffffffffffffffffffffffffffffffffff166342842e0e308360000160009054906101000a900473ffffffffffffffffffffffffffffffffffffffff16856040518463ffffffff1660e01b81526004016117de93929190612404565b600060405180830381600087803b1580156117f857600080fd5b505af115801561180c573d6000803e3d6000fd5b50505050817f2809c7e17bf978fbc7194c0a694b638c4215e9140cacc6c38ca36010b45697df60405160405180910390a25b50611847611b7b565b50565b3373ffffffffffffffffffffffffffffffffffffffff16600160009054906101000a900473ffffffffffffffffffffffffffffffffffffffff1673ffffffffffffffffffffffffffffffffffffffff16636352211e836040518263ffffffff1660e01b81526004016118bc9190611fe4565b602060405180830381865afa1580156118d9573d6000803e3d6000fd5b505050506040513d601f19601f820116820180604052508101906118fd91906123d7565b73ffffffffffffffffffffffffffffffffffffffff1614611953576040517f08c379a000000000000000000000000000000000000000000000000000000000815260040161194a90612505565b60405180910390fd5b60006005600083815260200190815260200160002060006101000a81548160ff0219169083151502179055506000600460008381526020019081526020016000208190555050565b61025881565b3373ffffffffffffffffffffffffffffffffffffffff16600160009054906101000a900473ffffffffffffffffffffffffffffffffffffffff1673ffffffffffffffffffffffffffffffffffffffff16636352211e846040518263ffffffff1660e01b8152600401611a139190611fe4565b602060405180830381865afa158015611a30573d6000803e3d6000fd5b505050506040513d601f19601f82011682018060405250810190611a5491906123d7565b73ffffffffffffffffffffffffffffffffffffffff1614611aaa576040517f08c379a0000000000000000000000000000000000000000000000000000000008152600401611aa190612505565b60405180910390fd5b60008111611aed576040517f08c379a0000000000000000000000000000000000000000000000000000000008152600401611ae4906127b6565b60405180910390fd5b80600460008481526020019081526020016000208190555060016005600084815260200190815260200160002060006101000a81548160ff0219169083151502179055505050565b600260005403611b71576040517f3ee5aeb500000000000000000000000000000000000000000000000000000000815260040160405180910390fd5b6002600081905550565b6001600081905550565b6000604051905090565b600080fd5b600080fd5b600073ffffffffffffffffffffffffffffffffffffffff82169050919050565b6000611bc482611b99565b9050919050565b611bd481611bb9565b8114611bdf57600080fd5b50565b600081359050611bf181611bcb565b92915050565b6000819050919050565b611c0a81611bf7565b8114611c1557600080fd5b50565b600081359050611c2781611c01565b92915050565b600080fd5b600080fd5b6000601f19601f8301169050919050565b7f4e487b7100000000000000000000000000000000000000000000000000000000600052604160045260246000fd5b611c8082611c37565b810181811067ffffffffffffffff82111715611c9f57611c9e611c48565b5b80604052505050565b6000611cb2611b85565b9050611cbe8282611c77565b919050565b600067ffffffffffffffff821115611cde57611cdd611c48565b5b611ce782611c37565b9050602081019050919050565b82818337600083830152505050565b6000611d16611d1184611cc3565b611ca8565b905082815260208101848484011115611d3257611d31611c32565b5b611d3d848285611cf4565b509392505050565b600082601f830112611d5a57611d59611c2d565b5b8135611d6a848260208601611d03565b91505092915050565b60008060008060808587031215611d8d57611d8c611b8f565b5b6000611d9b87828801611be2565b9450506020611dac87828801611be2565b9350506040611dbd87828801611c18565b925050606085013567ffffffffffffffff811115611dde57611ddd611b94565b5b611dea87828801611d45565b91505092959194509250565b60007fffffffff0000000000000000000000000000000000000000000000000000000082169050919050565b611e2b81611df6565b82525050565b6000602082019050611e466000830184611e22565b92915050565b600060208284031215611e6257611e61611b8f565b5b6000611e7084828501611c18565b91505092915050565b60008115159050919050565b611e8e81611e79565b82525050565b6000602082019050611ea96000830184611e85565b92915050565b6000819050919050565b6000611ed4611ecf611eca84611b99565b611eaf565b611b99565b9050919050565b6000611ee682611eb9565b9050919050565b6000611ef882611edb565b9050919050565b611f0881611eed565b82525050565b6000602082019050611f236000830184611eff565b92915050565b6000611f3482611edb565b9050919050565b611f4481611f29565b82525050565b6000602082019050611f5f6000830184611f3b565b92915050565b611f6e81611bb9565b82525050565b611f7d81611bf7565b82525050565b600060c082019050611f986000830189611f65565b611fa56020830188611f74565b611fb26040830187611f74565b611fbf6060830186611f65565b611fcc6080830185611f74565b611fd960a0830184611e85565b979650505050505050565b6000602082019050611ff96000830184611f74565b92915050565b60008060006060848603121561201857612017611b8f565b5b600061202686828701611c18565b935050602061203786828701611c18565b925050604061204886828701611c18565b9150509250925092565b6000806040838503121561206957612068611b8f565b5b600061207785828601611c18565b925050602061208885828601611c18565b9150509250929050565b600082825260208201905092915050565b7f41756374696f6e206e6f74206163746976650000000000000000000000000000600082015250565b60006120d9601283612092565b91506120e4826120a3565b602082019050919050565b60006020820190508181036000830152612108816120cc565b9050919050565b7f41756374696f6e20656e64656400000000000000000000000000000000000000600082015250565b6000612145600d83612092565b91506121508261210f565b602082019050919050565b6000602082019050818103600083015261217481612138565b9050919050565b7f4269642062656c6f77206d696e42696400000000000000000000000000000000600082015250565b60006121b1601083612092565b91506121bc8261217b565b602082019050919050565b600060208201905081810360008301526121e0816121a4565b9050919050565b7f426964206e6f74206869676820656e6f75676800000000000000000000000000600082015250565b600061221d601383612092565b9150612228826121e7565b602082019050919050565b6000602082019050818103600083015261224c81612210565b9050919050565b7f4e487b7100000000000000000000000000000000000000000000000000000000600052601160045260246000fd5b600061228d82611bf7565b915061229883611bf7565b92508282039050818111156122b0576122af612253565b5b92915050565b60006122c182611bf7565b91506122cc83611bf7565b92508282019050808211156122e4576122e3612253565b5b92915050565b7f4c616e64206e6f7420666f722073616c65000000000000000000000000000000600082015250565b6000612320601183612092565b915061232b826122ea565b602082019050919050565b6000602082019050818103600083015261234f81612313565b9050919050565b7f496e73756666696369656e74207061796d656e74000000000000000000000000600082015250565b600061238c601483612092565b915061239782612356565b602082019050919050565b600060208201905081810360008301526123bb8161237f565b9050919050565b6000815190506123d181611bcb565b92915050565b6000602082840312156123ed576123ec611b8f565b5b60006123fb848285016123c2565b91505092915050565b60006060820190506124196000830186611f65565b6124266020830185611f65565b6124336040830184611f74565b949350505050565b60006040820190506124506000830185611f74565b61245d6020830184611f74565b9392505050565b60008151905061247381611c01565b92915050565b600080604083850312156124905761248f611b8f565b5b600061249e858286016123c2565b92505060206124af85828601612464565b9150509250929050565b7f4e6f74204e4654206f776e657200000000000000000000000000000000000000600082015250565b60006124ef600d83612092565b91506124fa826124b9565b602082019050919050565b6000602082019050818103600083015261251e816124e2565b9050919050565b7f41756374696f6e20616c72656164792061637469766500000000000000000000600082015250565b600061255b601683612092565b915061256682612525565b602082019050919050565b6000602082019050818103600083015261258a8161254e565b9050919050565b7f4475726174696f6e206d757374206265203e2030000000000000000000000000600082015250565b60006125c7601483612092565b91506125d282612591565b602082019050919050565b600060208201905081810360008301526125f6816125ba565b9050919050565b7f4e6f742073656c6c657200000000000000000000000000000000000000000000600082015250565b6000612633600a83612092565b915061263e826125fd565b602082019050919050565b6000602082019050818103600083015261266281612626565b9050919050565b7f41756374696f6e20686173206269647300000000000000000000000000000000600082015250565b600061269f601083612092565b91506126aa82612669565b602082019050919050565b600060208201905081810360008301526126ce81612692565b9050919050565b7f41756374696f6e206e6f7420656e646564000000000000000000000000000000600082015250565b600061270b601183612092565b9150612716826126d5565b602082019050919050565b6000602082019050818103600083015261273a816126fe565b9050919050565b60006040820190506127566000830185611f65565b6127636020830184611f74565b9392505050565b7f5072696365206d757374206265203e2030000000000000000000000000000000600082015250565b60006127a0601183612092565b91506127ab8261276a565b602082019050919050565b600060208201905081810360008301526127cf81612793565b905091905056fea2646970667358221220a8dadda1c9938c975a53ac7ad3e59065761273840fd648082ce5037139a047bc64736f6c634300081c0033",
  "linkReferences": {},
  "deployedLinkReferences": {}
}