{
  "_format": "hh-sol-artifact-1",
  "contractName": "LandNFT",
  "sourceName": "contracts/LandNFT.sol",
  "abi": [
    {
      "inputs": [],
      "stateMutability": "nonpayable",
      "type": "constructor"
    },
    {
      "inputs": [
        {
          "internalType": "uint256",
          "name": "numerator",
          "type": "uint256"
        },
        {
          "internalType": "uint256",
          "name": "denominator",
          "type": "uint256"
        }
      ],
      "name": "ERC2981InvalidDefaultRoyalty",
      "type": "error"
    },
    {
      "inputs": [
        {
          "internalType": "address",
          "name": "receiver",
          "type": "address"
        }
      ],
      "name": "ERC2981InvalidDefaultRoyaltyReceiver",
      "type": "error"
    },
    {
      "inputs": [
        {
          "internalType": "uint256",
          "name": "tokenId",
          "type": "uint256"
        },
        {
          "internalType": "uint256",
          "name": "numerator",
          "type": "uint256"
        },
        {
          "internalType": "uint256",
          "name": "denominator",
          "type": "uint256"
        }
      ],
      "name": "ERC2981InvalidTokenRoyalty",
      "type": "error"
    },
    {
      "inputs": [
        {
          "internalType": "uint256",
          "name": "tokenId",
          "type": "uint256"
        },
        {
          "internalType": "address",
          "name": "receiver",
          "type": "address"
        }
      ],
      "name": "ERC2981InvalidTokenRoyaltyReceiver",
      "type": "error"
    },
    {
      "inputs": [
        {
          "internalType": "address",
          "name": "sender",
          "type": "address"
        },
        {
          "internalType": "uint256",
          "name": "tokenId",
          "type": "uint256"
        },
        {
          "internalType": "address",
          "name": "owner",
          "type": "address"
        }
      ],
      "name": "ERC721IncorrectOwner",
      "type": "error"
    },
    {
      "inputs": [
        {
          "internalType": "address",
          "name": "operator",
          "type": "address"
        },
        {
          "internalType": "uint256",
          "name": "tokenId",
          "type": "uint256"
        }
      ],
      "name": "ERC721InsufficientApproval",
      "type": "error"
    },
    {
      "inputs": [
        {
          "internalType": "address",
          "name": "approver",
          "type": "address"
        }
      ],
      "name": "ERC721InvalidApprover",
      "type": "error"
    },
    {
      "inputs": [
        {
          "internalType": "address",
          "name": "operator",
          "type": "address"
        }
      ],
      "name": "ERC721InvalidOperator",
      "type": "error"
    },
    {
      "inputs": [
        {
          "internalType": "address",
          "name": "owner",
          "type": "address"
        }
      ],
      "name": "ERC721InvalidOwner",
      "type": "error"
    },
    {
      "inputs": [
        {
          "internalType": "address",
          "name": "receiver",
          "type": "address"
        }
      ],
      "name": "ERC721InvalidReceiver",
      "type": "error"
    },
    {
      "inputs": [
        {
          "internalType": "address",
          "name": "sender",
          "type": "address"
        }
      ],
      "name": "ERC721InvalidSender",
      "type": "error"
    },
    {
      "inputs": [
        {
          "internalType": "uint256",
          "name": "tokenId",
          "type": "uint256"
        }
      ],
      "name": "ERC721NonexistentToken",
      "type": "error"
    },
    {
      "inputs": [
        {
          "internalType": "address",
          "name": "owner",
          "type": "address"
        }
      ],
      "name": "OwnableInvalidOwner",
      "type": "error"
    },
    {
      "inputs": [
        {
          "internalType": "address",
          "name": "account",
          "type": "address"
        }
      ],
      "name": "OwnableUnauthorizedAccount",
      "type": "error"
    },
    {
      "anonymous": false,
      "inputs": [
        {
          "indexed": true,
          "internalType": "address",
          "name": "owner",
          "type": "address"
        },
        {
          "indexed": true,
          "internalType": "address",
          "name": "approved",
          "type": "address"
        },
        {
          "indexed": true,
          "internalType": "uint256",
          "name": "tokenId",
          "type": "uint256"
        }
      ],
      "name": "Approval",
      "type": "event"
    },
    {
      "anonymous": false,
      "inputs": [
        {
          "indexed": true,
          "internalType": "address",
          "name": "owner",
          "type": "address"
        },
        {
          "indexed": true,
          "internalType": "address",
          "name": "operator",
          "type": "address"
        },
        {
          "indexed": false,
          "internalType": "bool",
          "name": "approved",
          "type": "bool"
        }
      ],
      "name": "ApprovalForAll",
      "type": "event"
    },
    {
      "anonymous": false,
      "inputs": [
        {
          "indexed": false,
          "internalType": "uint256",
          "name": "_fromTokenId",
          "type": "uint256"
        },
        {
          "indexed": false,
          "internalType": "uint256",
          "name": "_toTokenId",
          "type": "uint256"
        }
      ],
      "name": "BatchMetadataUpdate",
      "type": "event"
    },
    {
      "anonymous": false,
      "inputs": [
        {
          "indexed": true,
          "internalType": "address",
          "name": "to",
          "type": "address"
        },
        {
          "indexed": true,
          "internalType": "uint256",
          "name": "tokenId",
          "type": "uint256"
        },
        {
          "indexed": false,
          "internalType": "string",
          "name": "uri",
          "type": "string"
        }
      ],
      "name": "LandMinted",
      "type": "event"
    },
    {
      "anonymous": false,
      "inputs": [
        {
          "indexed": false,
          "internalType": "uint256",
          "name": "_tokenId",
          "type": "uint256"
        }
      ],
      "name": "MetadataUpdate",
      "type": "event"
    },
    {
      "anonymous": false,
      "inputs": [
        {
          "indexed": true,
          "internalType": "address",
          "name": "previousOwner",
          "type": "address"
        },
        {
          "indexed": true,
          "internalType": "address",
          "name": "newOwner",
          "type": "address"
        }
      ],
      "name": "OwnershipTransferred",
      "type": "event"
    },
    {
      "anonymous": false,
      "inputs": [
        {
          "indexed": true,
          "internalType": "address",
          "name": "from",
          "type": "address"
        },
        {
          "indexed": true,
          "internalType": "address",
          "name": "to",
          "type": "address"
        },
        {
          "indexed": true,
          "internalType": "uint256",
          "name": "tokenId",
          "type": "uint256"
        }
      ],
      "name": "Transfer",
      "type": "event"
    },
    {
      "inputs": [
        {
          "internalType": "address",
          "name": "to",
          "type": "address"
        },
        {
          "internalType": "uint256",
          "name": "tokenId",
          "type": "uint256"
        }
      ],
      "name": "approve",
      "outputs": [],
      "stateMutability": "nonpayable",
      "type": "function"
    },
    {
      "inputs": [
        {
          "internalType": "address",
          "name": "owner",
          "type": "address"
        }
      ],
      "name": "balanceOf",
      "outputs": [
        {
          "internalType": "uint256",
          "name": "",
          "type": "uint256"
        }
      ],
      "stateMutability": "view",
      "type": "function"
    },
    {
      "inputs": [
        {
          "internalType": "uint256",
          "name": "tokenId",
          "type": "uint256"
        }
      ],
      "name": "getApproved",
      "outputs": [
        {
          "internalType": "address",
          "name": "",
          "type": "address"
        }
      ],
      "stateMutability": "view",
      "type": "function"
    },
    {
      "inputs": [
        {
          "internalType": "address",
          "name": "owner",
          "type": "address"
        },
        {
          "internalType": "address",
          "name": "operator",
          "type": "address"
        }
      ],
      "name": "isApprovedForAll",
      "outputs": [
        {
          "internalType": "bool",
          "name": "",
          "type": "bool"
        }
      ],
      "stateMutability": "view",
      "type": "function"
    },
    {
      "inputs": [
        {
          "internalType": "address",
          "name": "to",
          "type": "address"
        }
      ],
      "name": "mintLand",
      "outputs": [
        {
          "internalType": "uint256",
          "name": "",
          "type": "uint256"
        }
      ],
      "stateMutability": "nonpayable",
      "type": "function"
    },
    {
      "inputs": [],
      "name": "name",
      "outputs": [
        {
          "internalType": "string",
          "name": "",
          "type": "string"
        }
      ],
      "stateMutability": "view",
      "type": "function"
    },
    {
      "inputs": [],
      "name": "owner",
      "outputs": [
        {
          "internalType": "address",
          "name": "",
          "type": "address"
        }
      ],
      "stateMutability": "view",
      "type": "function"
    },
    {
      "inputs": [
        {
          "internalType": "uint256",
          "name": "tokenId",
          "type": "uint256"
        }
      ],
      "name": "ownerOf",
      "outputs": [
        {
          "internalType": "address",
          "name": "",
          "type": "address"
        }
      ],
      "stateMutability": "view",
      "type": "function"
    },
    {
      "inputs": [],
      "name": "renounceOwnership",
      "outputs": [],
      "stateMutability": "nonpayable",
      "type": "function"
    },
    {
      "inputs": [
        {
          "internalType": "uint256",
          "name": "tokenId",
          "type": "uint256"
        },
        {
          "internalType": "uint256",
          "name": "salePrice",
          "type": "uint256"
        }
      ],
      "name": "royaltyInfo",
      "outputs": [
        {
          "internalType": "address",
          "name": "receiver",
          "type": "address"
        },
        {
          "internalType": "uint256",
          "name": "amount",
          "type": "uint256"
        }
      ],
      "stateMutability": "view",
      "type": "function"
    },
    {
      "inputs": [
        {
          "internalType": "address",
          "name": "from",
          "type": "address"
        },
        {
          "internalType": "address",
          "name": "to",
          "type": "address"
        },
        {
          "internalType": "uint256",
          "name": "tokenId",
          "type": "uint256"
        }
      ],
      "name": "safeTransferFrom",
      "outputs": [],
      "stateMutability": "nonpayable",
      "type": "function"
    },
    {
      "inputs": [
        {
          "internalType": "address",
          "name": "from",
          "type": "address"
        },
        {
          "internalType": "address",
          "name": "to",
          "type": "address"
        },
        {
          "internalType": "uint256",
          "name": "tokenId",
          "type": "uint256"
        },
        {
          "internalType": "bytes",
          "name": "data",
          "type": "bytes"
        }
      ],
      "name": "safeTransferFrom",
      "outputs": [],
      "stateMutability": "nonpayable",
      "type": "function"
    },
    {
      "inputs": [
        {
          "internalType": "address",
          "name": "operator",
          "type": "address"
        },
        {
          "internalType": "bool",
          "name": "approved",
          "type": "bool"
        }
      ],
      "name": "setApprovalForAll",
      "outputs": [],
      "stateMutability": "nonpayable",
      "type": "function"
    },
    {
      "inputs": [
        {
          "internalType": "string",
          "name": "newBaseURI",
          "type": "string"
        }
      ],
      "name": "setBaseURI",
      "outputs": [],
      "stateMutability": "nonpayable",
      "type": "function"
    },
    {
      "inputs": [
        {
          "internalType": "address",
          "name": "receiver",
          "type": "address"
        },
        {
          "internalType": "uint96",
          "name": "feeNumerator",
          "type": "uint96"
        }
      ],
      "name": "setDefaultRoyalty",
      "outputs": [],
      "stateMutability": "nonpayable",
      "type": "function"
    },
    {
      "inputs": [
        {
          "internalType": "uint256",
          "name": "tokenId",
          "type": "uint256"
        },
        {
          "internalType": "address",
          "name": "receiver",
          "type": "address"
        },
        {
          "internalType": "uint96",
          "name": "feeNumerator",
          "type": "uint96"
        }
      ],
      "name": "setTokenRoyalty",
      "outputs": [],
      "stateMutability": "nonpayable",
      "type": "function"
    },
    {
      "inputs": [
        {
          "internalType": "bytes4",
          "name": "interfaceId",
          "type": "bytes4"
        }
      ],
      "name": "supportsInterface",
      "outputs": [
        {
          "internalType": "bool",
          "name": "",
          "type": "bool"
        }
      ],
      "stateMutability": "view",
      "type": "function"
    },
    {
      "inputs": [],
      "name": "symbol",
      "outputs": [
        {
          "internalType": "string",
          "name": "",
          "type": "string"
        }
      ],
      "stateMutability": "view",
      "type": "function"
    },
    {
      "inputs": [
        {
          "internalType": "uint256",
          "name": "tokenId",
          "type": "uint256"
        }
      ],
      "name": "tokenURI",
      "outputs": [
        {
          "internalType": "string",
          "name": "",
          "type": "string"
        }
      ],
      "stateMutability": "view",
      "type": "function"
    },
    {
      "inputs": [
        {
          "internalType": "address",
          "name": "from",
          "type": "address"
        },
        {
          "internalType": "address",
          "name": "to",
          "type": "address"
        },
        {
          "internalType": "uint256",
          "name": "tokenId",
          "type": "uint256"
        }
      ],
      "name": "transferFrom",
      "outputs": [],
      "stateMutability": "nonpayable",
      "type": "function"
    },
    {
      "inputs": [
        {
          "internalType": "address",
          "name": "newOwner",
          "type": "address"
        }
      ],
      "name": "transferOwnership",
      "outputs": [],
      "stateMutability": "nonpayable",
      "type": "function"
    }
  ],
  "bytecode": "0x60806040526040518060a001604052806064815260200161364f60649139600b908161002b9190610628565b5034801561003857600080fd5b50336040518060400160405280600a81526020017f4c616e6450617263656c000000000000000000000000000000000000000000008152506040518060400160405280600481526020017f4c414e440000000000000000000000000000000000000000000000000000000081525081600290816100b59190610628565b5080600390816100c59190610628565b505050600073ffffffffffffffffffffffffffffffffffffffff168173ffffffffffffffffffffffffffffffffffffffff160361013a5760006040517f1e4fbdf7000000000000000000000000000000000000000000000000000000008152600401610131919061073b565b60405180910390fd5b6101498161016160201b60201c565b5061015c336101f461022760201b60201c565b6107d7565b6000600960009054906101000a900473ffffffffffffffffffffffffffffffffffffffff16905081600960006101000a81548173ffffffffffffffffffffffffffffffffffffffff021916908373ffffffffffffffffffffffffffffffffffffffff1602179055508173ffffffffffffffffffffffffffffffffffffffff168173ffffffffffffffffffffffffffffffffffffffff167f8be0079c531659141344cd1fd0a4f28419497f9722a3daafe3b4186f6b6457e060405160405180910390a35050565b60006102376103ce60201b60201c565b6bffffffffffffffffffffffff16905080826bffffffffffffffffffffffff16111561029c5781816040517f6f483d090000000000000000000000000000000000000000000000000000000081526004016102939291906107ae565b60405180910390fd5b600073ffffffffffffffffffffffffffffffffffffffff168373ffffffffffffffffffffffffffffffffffffffff160361030e5760006040517fb6d9900a000000000000000000000000000000000000000000000000000000008152600401610305919061073b565b60405180910390fd5b60405180604001604052808473ffffffffffffffffffffffffffffffffffffffff168152602001836bffffffffffffffffffffffff168152506000808201518160000160006101000a81548173ffffffffffffffffffffffffffffffffffffffff021916908373ffffffffffffffffffffffffffffffffffffffff16021790555060208201518160000160146101000a8154816bffffffffffffffffffffffff02191690836bffffffffffffffffffffffff160217905550905050505050565b6000612710905090565b600081519050919050565b7f4e487b7100000000000000000000000000000000000000000000000000000000600052604160045260246000fd5b7f4e487b7100000000000000000000000000000000000000000000000000000000600052602260045260246000fd5b6000600282049050600182168061045957607f821691505b60208210810361046c5761046b610412565b5b50919050565b60008190508160005260206000209050919050565b60006020601f8301049050919050565b600082821b905092915050565b6000600883026104d47fffffffffffffffffffffffffffffffffffffffffffffffffffffffffffffffff82610497565b6104de8683610497565b95508019841693508086168417925050509392505050565b6000819050919050565b6000819050919050565b600061052561052061051b846104f6565b610500565b6104f6565b9050919050565b6000819050919050565b61053f8361050a565b61055361054b8261052c565b8484546104a4565b825550505050565b600090565b61056861055b565b610573818484610536565b505050565b5b818110156105975761058c600082610560565b600181019050610579565b5050565b601f8211156105dc576105ad81610472565b6105b684610487565b810160208510156105c5578190505b6105d96105d185610487565b830182610578565b50505b505050565b600082821c905092915050565b60006105ff600019846008026105e1565b1980831691505092915050565b600061061883836105ee565b9150826002028217905092915050565b610631826103d8565b67ffffffffffffffff81111561064a576106496103e3565b5b6106548254610441565b61065f82828561059b565b600060209050601f8311600181146106925760008415610680578287015190505b61068a858261060c565b8655506106f2565b601f1984166106a086610472565b60005b828110156106c8578489015182556001820191506020850194506020810190506106a3565b868310156106e557848901516106e1601f8916826105ee565b8355505b6001600288020188555050505b505050505050565b600073ffffffffffffffffffffffffffffffffffffffff82169050919050565b6000610725826106fa565b9050919050565b6107358161071a565b82525050565b6000602082019050610750600083018461072c565b92915050565b60006bffffffffffffffffffffffff82169050919050565b600061078961078461077f84610756565b610500565b6104f6565b9050919050565b6107998161076e565b82525050565b6107a8816104f6565b82525050565b60006040820190506107c36000830185610790565b6107d0602083018461079f565b9392505050565b612e69806107e66000396000f3fe608060405234801561001057600080fd5b50600436106101375760003560e01c80635944c753116100b857806395d89b411161007c57806395d89b411461034b578063a22cb46514610369578063b88d4fde14610385578063c87b56dd146103a1578063e985e9c5146103d1578063f2fde38b1461040157610137565b80635944c753146102a75780636352211e146102c357806370a08231146102f3578063715018a6146103235780638da5cb5b1461032d57610137565b80630d4e96a3116100ff5780630d4e96a3146101f257806323b872dd146102225780632a55205a1461023e57806342842e0e1461026f57806355f804b31461028b57610137565b806301ffc9a71461013c57806304634d8d1461016c57806306fdde0314610188578063081812fc146101a6578063095ea7b3146101d6575b600080fd5b6101566004803603810190610151919061205b565b61041d565b60405161016391906120a3565b60405180910390f35b61018660048036038101906101819190612160565b61042f565b005b610190610445565b60405161019d9190612230565b60405180910390f35b6101c060048036038101906101bb9190612288565b6104d7565b6040516101cd91906122c4565b60405180910390f35b6101f060048036038101906101eb91906122df565b6104f3565b005b61020c6004803603810190610207919061231f565b610509565b604051610219919061235b565b60405180910390f35b61023c60048036038101906102379190612376565b6105c4565b005b610258600480360381019061025391906123c9565b6106c6565b604051610266929190612409565b60405180910390f35b61028960048036038101906102849190612376565b6107f4565b005b6102a560048036038101906102a09190612567565b610814565b005b6102c160048036038101906102bc91906125b0565b61082f565b005b6102dd60048036038101906102d89190612288565b610847565b6040516102ea91906122c4565b60405180910390f35b61030d6004803603810190610308919061231f565b610859565b60405161031a919061235b565b60405180910390f35b61032b610913565b005b610335610927565b60405161034291906122c4565b60405180910390f35b610353610951565b6040516103609190612230565b60405180910390f35b610383600480360381019061037e919061262f565b6109e3565b005b61039f600480360381019061039a9190612710565b6109f9565b005b6103bb60048036038101906103b69190612288565b610a1e565b6040516103c89190612230565b60405180910390f35b6103eb60048036038101906103e69190612793565b610a5e565b6040516103f891906120a3565b60405180910390f35b61041b6004803603810190610416919061231f565b610af2565b005b600061042882610b78565b9050919050565b610437610b8a565b6104418282610c11565b5050565b60606002805461045490612802565b80601f016020809104026020016040519081016040528092919081815260200182805461048090612802565b80156104cd5780601f106104a2576101008083540402835291602001916104cd565b820191906000526020600020905b8154815290600101906020018083116104b057829003601f168201915b5050505050905090565b60006104e282610db2565b506104ec82610e3a565b9050919050565b6105058282610500610e77565b610e7f565b5050565b6000610513610b8a565b6000600a6000815461052490612862565b91905081905590506105368382610e91565b6000610540610eaf565b9050818473ffffffffffffffffffffffffffffffffffffffff167fb145eb58c4ce95ea8ebb64f9ec4c2c5ff09c2aeb40afca8cee50367dfec496e68361058586610f41565b60405160200161059692919061290c565b6040516020818303038152906040526040516105b29190612230565b60405180910390a38192505050919050565b600073ffffffffffffffffffffffffffffffffffffffff168273ffffffffffffffffffffffffffffffffffffffff16036106365760006040517f64a0ae9200000000000000000000000000000000000000000000000000000000815260040161062d91906122c4565b60405180910390fd5b600061064a8383610645610e77565b61100f565b90508373ffffffffffffffffffffffffffffffffffffffff168173ffffffffffffffffffffffffffffffffffffffff16146106c0578382826040517f64283d7b0000000000000000000000000000000000000000000000000000000081526004016106b79392919061293f565b60405180910390fd5b50505050565b600080600060016000868152602001908152602001600020905060008160000160009054906101000a900473ffffffffffffffffffffffffffffffffffffffff16905060008260000160149054906101000a90046bffffffffffffffffffffffff169050600073ffffffffffffffffffffffffffffffffffffffff168273ffffffffffffffffffffffffffffffffffffffff16036107a5576000800160009054906101000a900473ffffffffffffffffffffffffffffffffffffffff1691506000800160149054906101000a90046bffffffffffffffffffffffff1690505b60006107af611229565b6bffffffffffffffffffffffff16826bffffffffffffffffffffffff16886107d79190612976565b6107e191906129e7565b9050828195509550505050509250929050565b61080f838383604051806020016040528060008152506109f9565b505050565b61081c610b8a565b80600b908161082b9190612bc4565b5050565b610837610b8a565b610842838383611233565b505050565b600061085282610db2565b9050919050565b60008073ffffffffffffffffffffffffffffffffffffffff168273ffffffffffffffffffffffffffffffffffffffff16036108cc5760006040517f89c62b640000000000000000000000000000000000000000000000000000000081526004016108c391906122c4565b60405180910390fd5b600560008373ffffffffffffffffffffffffffffffffffffffff1673ffffffffffffffffffffffffffffffffffffffff168152602001908152602001600020549050919050565b61091b610b8a565b61092560006113eb565b565b6000600960009054906101000a900473ffffffffffffffffffffffffffffffffffffffff16905090565b60606003805461096090612802565b80601f016020809104026020016040519081016040528092919081815260200182805461098c90612802565b80156109d95780601f106109ae576101008083540402835291602001916109d9565b820191906000526020600020905b8154815290600101906020018083116109bc57829003601f168201915b5050505050905090565b6109f56109ee610e77565b83836114b1565b5050565b610a048484846105c4565b610a18610a0f610e77565b85858585611620565b50505050565b60606000610a2a610eaf565b905080610a3684610f41565b604051602001610a4792919061290c565b604051602081830303815290604052915050919050565b6000600760008473ffffffffffffffffffffffffffffffffffffffff1673ffffffffffffffffffffffffffffffffffffffff16815260200190815260200160002060008373ffffffffffffffffffffffffffffffffffffffff1673ffffffffffffffffffffffffffffffffffffffff16815260200190815260200160002060009054906101000a900460ff16905092915050565b610afa610b8a565b600073ffffffffffffffffffffffffffffffffffffffff168173ffffffffffffffffffffffffffffffffffffffff1603610b6c5760006040517f1e4fbdf7000000000000000000000000000000000000000000000000000000008152600401610b6391906122c4565b60405180910390fd5b610b75816113eb565b50565b6000610b83826117d1565b9050919050565b610b92610e77565b73ffffffffffffffffffffffffffffffffffffffff16610bb0610927565b73ffffffffffffffffffffffffffffffffffffffff1614610c0f57610bd3610e77565b6040517f118cdaa7000000000000000000000000000000000000000000000000000000008152600401610c0691906122c4565b60405180910390fd5b565b6000610c1b611229565b6bffffffffffffffffffffffff16905080826bffffffffffffffffffffffff161115610c805781816040517f6f483d09000000000000000000000000000000000000000000000000000000008152600401610c77929190612cc7565b60405180910390fd5b600073ffffffffffffffffffffffffffffffffffffffff168373ffffffffffffffffffffffffffffffffffffffff1603610cf25760006040517fb6d9900a000000000000000000000000000000000000000000000000000000008152600401610ce991906122c4565b60405180910390fd5b60405180604001604052808473ffffffffffffffffffffffffffffffffffffffff168152602001836bffffffffffffffffffffffff168152506000808201518160000160006101000a81548173ffffffffffffffffffffffffffffffffffffffff021916908373ffffffffffffffffffffffffffffffffffffffff16021790555060208201518160000160146101000a8154816bffffffffffffffffffffffff02191690836bffffffffffffffffffffffff160217905550905050505050565b600080610dbe83611832565b9050600073ffffffffffffffffffffffffffffffffffffffff168173ffffffffffffffffffffffffffffffffffffffff1603610e3157826040517f7e273289000000000000000000000000000000000000000000000000000000008152600401610e28919061235b565b60405180910390fd5b80915050919050565b60006006600083815260200190815260200160002060009054906101000a900473ffffffffffffffffffffffffffffffffffffffff169050919050565b600033905090565b610e8c838383600161186f565b505050565b610eab828260405180602001604052806000815250611a34565b5050565b6060600b8054610ebe90612802565b80601f0160208091040260200160405190810160405280929190818152602001828054610eea90612802565b8015610f375780601f10610f0c57610100808354040283529160200191610f37565b820191906000526020600020905b815481529060010190602001808311610f1a57829003601f168201915b5050505050905090565b606060006001610f5084611a58565b01905060008167ffffffffffffffff811115610f6f57610f6e61243c565b5b6040519080825280601f01601f191660200182016040528015610fa15781602001600182028036833780820191505090505b509050600082602001820190505b600115611004578080600190039150507f3031323334353637383961626364656600000000000000000000000000000000600a86061a8153600a8581610ff857610ff76129b8565b5b04945060008503610faf575b819350505050919050565b60008061101b84611832565b9050600073ffffffffffffffffffffffffffffffffffffffff168373ffffffffffffffffffffffffffffffffffffffff161461105d5761105c818486611bab565b5b600073ffffffffffffffffffffffffffffffffffffffff168173ffffffffffffffffffffffffffffffffffffffff16146110ee5761109f60008560008061186f565b6001600560008373ffffffffffffffffffffffffffffffffffffffff1673ffffffffffffffffffffffffffffffffffffffff168152602001908152602001600020600082825403925050819055505b600073ffffffffffffffffffffffffffffffffffffffff168573ffffffffffffffffffffffffffffffffffffffff1614611171576001600560008773ffffffffffffffffffffffffffffffffffffffff1673ffffffffffffffffffffffffffffffffffffffff168152602001908152602001600020600082825401925050819055505b846004600086815260200190815260200160002060006101000a81548173ffffffffffffffffffffffffffffffffffffffff021916908373ffffffffffffffffffffffffffffffffffffffff160217905550838573ffffffffffffffffffffffffffffffffffffffff168273ffffffffffffffffffffffffffffffffffffffff167fddf252ad1be2c89b69c2b068fc378daa952ba7f163c4a11628f55a4df523b3ef60405160405180910390a4809150509392505050565b6000612710905090565b600061123d611229565b6bffffffffffffffffffffffff16905080826bffffffffffffffffffffffff1611156112a4578382826040517fdfd1fc1b00000000000000000000000000000000000000000000000000000000815260040161129b93929190612cf0565b60405180910390fd5b600073ffffffffffffffffffffffffffffffffffffffff168373ffffffffffffffffffffffffffffffffffffffff1603611318578360006040517f969f085200000000000000000000000000000000000000000000000000000000815260040161130f929190612d27565b60405180910390fd5b60405180604001604052808473ffffffffffffffffffffffffffffffffffffffff168152602001836bffffffffffffffffffffffff168152506001600086815260200190815260200160002060008201518160000160006101000a81548173ffffffffffffffffffffffffffffffffffffffff021916908373ffffffffffffffffffffffffffffffffffffffff16021790555060208201518160000160146101000a8154816bffffffffffffffffffffffff02191690836bffffffffffffffffffffffff16021790555090505050505050565b6000600960009054906101000a900473ffffffffffffffffffffffffffffffffffffffff16905081600960006101000a81548173ffffffffffffffffffffffffffffffffffffffff021916908373ffffffffffffffffffffffffffffffffffffffff1602179055508173ffffffffffffffffffffffffffffffffffffffff168173ffffffffffffffffffffffffffffffffffffffff167f8be0079c531659141344cd1fd0a4f28419497f9722a3daafe3b4186f6b6457e060405160405180910390a35050565b600073ffffffffffffffffffffffffffffffffffffffff168273ffffffffffffffffffffffffffffffffffffffff160361152257816040517f5b08ba1800000000000000000000000000000000000000000000000000000000815260040161151991906122c4565b60405180910390fd5b80600760008573ffffffffffffffffffffffffffffffffffffffff1673ffffffffffffffffffffffffffffffffffffffff16815260200190815260200160002060008473ffffffffffffffffffffffffffffffffffffffff1673ffffffffffffffffffffffffffffffffffffffff16815260200190815260200160002060006101000a81548160ff0219169083151502179055508173ffffffffffffffffffffffffffffffffffffffff168373ffffffffffffffffffffffffffffffffffffffff167f17307eab39ab6107e8899845ad3d59bd9653f200f220920489ca2b5937696c318360405161161391906120a3565b60405180910390a3505050565b60008373ffffffffffffffffffffffffffffffffffffffff163b11156117ca578273ffffffffffffffffffffffffffffffffffffffff1663150b7a02868685856040518563ffffffff1660e01b815260040161167f9493929190612da5565b6020604051808303816000875af19250505080156116bb57506040513d601f19601f820116820180604052508101906116b89190612e06565b60015b61173f573d80600081146116eb576040519150601f19603f3d011682016040523d82523d6000602084013e6116f0565b606091505b50600081510361173757836040517f64a0ae9200000000000000000000000000000000000000000000000000000000815260040161172e91906122c4565b60405180910390fd5b805181602001fd5b63150b7a0260e01b7bffffffffffffffffffffffffffffffffffffffffffffffffffffffff1916817bffffffffffffffffffffffffffffffffffffffffffffffffffffffff1916146117c857836040517f64a0ae920000000000000000000000000000000000000000000000000000000081526004016117bf91906122c4565b60405180910390fd5b505b5050505050565b6000634906490660e01b7bffffffffffffffffffffffffffffffffffffffffffffffffffffffff1916827bffffffffffffffffffffffffffffffffffffffffffffffffffffffff1916148061182b575061182a82611c6f565b5b9050919050565b60006004600083815260200190815260200160002060009054906101000a900473ffffffffffffffffffffffffffffffffffffffff169050919050565b80806118a85750600073ffffffffffffffffffffffffffffffffffffffff168273ffffffffffffffffffffffffffffffffffffffff1614155b156119dc5760006118b884610db2565b9050600073ffffffffffffffffffffffffffffffffffffffff168373ffffffffffffffffffffffffffffffffffffffff161415801561192357508273ffffffffffffffffffffffffffffffffffffffff168173ffffffffffffffffffffffffffffffffffffffff1614155b801561193657506119348184610a5e565b155b1561197857826040517fa9fbf51f00000000000000000000000000000000000000000000000000000000815260040161196f91906122c4565b60405180910390fd5b81156119da57838573ffffffffffffffffffffffffffffffffffffffff168273ffffffffffffffffffffffffffffffffffffffff167f8c5be1e5ebec7d5bd14f71427d1e84f3dd0314c0f7b2291e5b200ac8c7c3b92560405160405180910390a45b505b836006600085815260200190815260200160002060006101000a81548173ffffffffffffffffffffffffffffffffffffffff021916908373ffffffffffffffffffffffffffffffffffffffff16021790555050505050565b611a3e8383611d51565b611a53611a49610e77565b6000858585611620565b505050565b600080600090507a184f03e93ff9f4daa797ed6e38ed64bf6a1f0100000000000000008310611ab6577a184f03e93ff9f4daa797ed6e38ed64bf6a1f0100000000000000008381611aac57611aab6129b8565b5b0492506040810190505b6d04ee2d6d415b85acef81000000008310611af3576d04ee2d6d415b85acef81000000008381611ae957611ae86129b8565b5b0492506020810190505b662386f26fc100008310611b2257662386f26fc100008381611b1857611b176129b8565b5b0492506010810190505b6305f5e1008310611b4b576305f5e1008381611b4157611b406129b8565b5b0492506008810190505b6127108310611b70576127108381611b6657611b656129b8565b5b0492506004810190505b60648310611b935760648381611b8957611b886129b8565b5b0492506002810190505b600a8310611ba2576001810190505b80915050919050565b611bb6838383611e4a565b611c6a57600073ffffffffffffffffffffffffffffffffffffffff168373ffffffffffffffffffffffffffffffffffffffff1603611c2b57806040517f7e273289000000000000000000000000000000000000000000000000000000008152600401611c22919061235b565b60405180910390fd5b81816040517f177e802f000000000000000000000000000000000000000000000000000000008152600401611c61929190612409565b60405180910390fd5b505050565b60007f80ac58cd000000000000000000000000000000000000000000000000000000007bffffffffffffffffffffffffffffffffffffffffffffffffffffffff1916827bffffffffffffffffffffffffffffffffffffffffffffffffffffffff19161480611d3a57507f5b5e139f000000000000000000000000000000000000000000000000000000007bffffffffffffffffffffffffffffffffffffffffffffffffffffffff1916827bffffffffffffffffffffffffffffffffffffffffffffffffffffffff1916145b80611d4a5750611d4982611f0b565b5b9050919050565b600073ffffffffffffffffffffffffffffffffffffffff168273ffffffffffffffffffffffffffffffffffffffff1603611dc35760006040517f64a0ae92000000000000000000000000000000000000000000000000000000008152600401611dba91906122c4565b60405180910390fd5b6000611dd18383600061100f565b9050600073ffffffffffffffffffffffffffffffffffffffff168173ffffffffffffffffffffffffffffffffffffffff1614611e455760006040517f73c6ac6e000000000000000000000000000000000000000000000000000000008152600401611e3c91906122c4565b60405180910390fd5b505050565b60008073ffffffffffffffffffffffffffffffffffffffff168373ffffffffffffffffffffffffffffffffffffffff1614158015611f0257508273ffffffffffffffffffffffffffffffffffffffff168473ffffffffffffffffffffffffffffffffffffffff161480611ec35750611ec28484610a5e565b5b80611f0157508273ffffffffffffffffffffffffffffffffffffffff16611ee983610e3a565b73ffffffffffffffffffffffffffffffffffffffff16145b5b90509392505050565b60007f2a55205a000000000000000000000000000000000000000000000000000000007bffffffffffffffffffffffffffffffffffffffffffffffffffffffff1916827bffffffffffffffffffffffffffffffffffffffffffffffffffffffff19161480611f7e5750611f7d82611f85565b5b9050919050565b60007f01ffc9a7000000000000000000000000000000000000000000000000000000007bffffffffffffffffffffffffffffffffffffffffffffffffffffffff1916827bffffffffffffffffffffffffffffffffffffffffffffffffffffffff1916149050919050565b6000604051905090565b600080fd5b600080fd5b60007fffffffff0000000000000000000000000000000000000000000000000000000082169050919050565b61203881612003565b811461204357600080fd5b50565b6000813590506120558161202f565b92915050565b60006020828403121561207157612070611ff9565b5b600061207f84828501612046565b91505092915050565b60008115159050919050565b61209d81612088565b82525050565b60006020820190506120b86000830184612094565b92915050565b600073ffffffffffffffffffffffffffffffffffffffff82169050919050565b60006120e9826120be565b9050919050565b6120f9816120de565b811461210457600080fd5b50565b600081359050612116816120f0565b92915050565b60006bffffffffffffffffffffffff82169050919050565b61213d8161211c565b811461214857600080fd5b50565b60008135905061215a81612134565b92915050565b6000806040838503121561217757612176611ff9565b5b600061218585828601612107565b92505060206121968582860161214b565b9150509250929050565b600081519050919050565b600082825260208201905092915050565b60005b838110156121da5780820151818401526020810190506121bf565b60008484015250505050565b6000601f19601f8301169050919050565b6000612202826121a0565b61220c81856121ab565b935061221c8185602086016121bc565b612225816121e6565b840191505092915050565b6000602082019050818103600083015261224a81846121f7565b905092915050565b6000819050919050565b61226581612252565b811461227057600080fd5b50565b6000813590506122828161225c565b92915050565b60006020828403121561229e5761229d611ff9565b5b60006122ac84828501612273565b91505092915050565b6122be816120de565b82525050565b60006020820190506122d960008301846122b5565b92915050565b600080604083850312156122f6576122f5611ff9565b5b600061230485828601612107565b925050602061231585828601612273565b9150509250929050565b60006020828403121561233557612334611ff9565b5b600061234384828501612107565b91505092915050565b61235581612252565b82525050565b6000602082019050612370600083018461234c565b92915050565b60008060006060848603121561238f5761238e611ff9565b5b600061239d86828701612107565b93505060206123ae86828701612107565b92505060406123bf86828701612273565b9150509250925092565b600080604083850312156123e0576123df611ff9565b5b60006123ee85828601612273565b92505060206123ff85828601612273565b9150509250929050565b600060408201905061241e60008301856122b5565b61242b602083018461234c565b9392505050565b600080fd5b600080fd5b7f4e487b7100000000000000000000000000000000000000000000000000000000600052604160045260246000fd5b612474826121e6565b810181811067ffffffffffffffff821117156124935761249261243c565b5b80604052505050565b60006124a6611fef565b90506124b2828261246b565b919050565b600067ffffffffffffffff8211156124d2576124d161243c565b5b6124db826121e6565b9050602081019050919050565b82818337600083830152505050565b600061250a612505846124b7565b61249c565b90508281526020810184848401111561252657612525612437565b5b6125318482856124e8565b509392505050565b600082601f83011261254e5761254d612432565b5b813561255e8482602086016124f7565b91505092915050565b60006020828403121561257d5761257c611ff9565b5b600082013567ffffffffffffffff81111561259b5761259a611ffe565b5b6125a784828501612539565b91505092915050565b6000806000606084860312156125c9576125c8611ff9565b5b60006125d786828701612273565b93505060206125e886828701612107565b92505060406125f98682870161214b565b9150509250925092565b61260c81612088565b811461261757600080fd5b50565b60008135905061262981612603565b92915050565b6000806040838503121561264657612645611ff9565b5b600061265485828601612107565b92505060206126658582860161261a565b9150509250929050565b600067ffffffffffffffff82111561268a5761268961243c565b5b612693826121e6565b9050602081019050919050565b60006126b36126ae8461266f565b61249c565b9050828152602081018484840111156126cf576126ce612437565b5b6126da8482856124e8565b509392505050565b600082601f8301126126f7576126f6612432565b5b81356127078482602086016126a0565b91505092915050565b6000806000806080858703121561272a57612729611ff9565b5b600061273887828801612107565b945050602061274987828801612107565b935050604061275a87828801612273565b925050606085013567ffffffffffffffff81111561277b5761277a611ffe565b5b612787878288016126e2565b91505092959194509250565b600080604083850312156127aa576127a9611ff9565b5b60006127b885828601612107565b92505060206127c985828601612107565b9150509250929050565b7f4e487b7100000000000000000000000000000000000000000000000000000000600052602260045260246000fd5b6000600282049050600182168061281a57607f821691505b60208210810361282d5761282c6127d3565b5b50919050565b7f4e487b7100000000000000000000000000000000000000000000000000000000600052601160045260246000fd5b600061286d82612252565b91507fffffffffffffffffffffffffffffffffffffffffffffffffffffffffffffffff820361289f5761289e612833565b5b600182019050919050565b600081905092915050565b60006128c0826121a0565b6128ca81856128aa565b93506128da8185602086016121bc565b80840191505092915050565b7f2e6a736f6e000000000000000000000000000000000000000000000000000000815250565b600061291882856128b5565b915061292482846128b5565b915061292f826128e6565b6005820191508190509392505050565b600060608201905061295460008301866122b5565b612961602083018561234c565b61296e60408301846122b5565b949350505050565b600061298182612252565b915061298c83612252565b925082820261299a81612252565b915082820484148315176129b1576129b0612833565b5b5092915050565b7f4e487b7100000000000000000000000000000000000000000000000000000000600052601260045260246000fd5b60006129f282612252565b91506129fd83612252565b925082612a0d57612a0c6129b8565b5b828204905092915050565b60008190508160005260206000209050919050565b60006020601f8301049050919050565b600082821b905092915050565b600060088302612a7a7fffffffffffffffffffffffffffffffffffffffffffffffffffffffffffffffff82612a3d565b612a848683612a3d565b95508019841693508086168417925050509392505050565b6000819050919050565b6000612ac1612abc612ab784612252565b612a9c565b612252565b9050919050565b6000819050919050565b612adb83612aa6565b612aef612ae782612ac8565b848454612a4a565b825550505050565b600090565b612b04612af7565b612b0f818484612ad2565b505050565b5b81811015612b3357612b28600082612afc565b600181019050612b15565b5050565b601f821115612b7857612b4981612a18565b612b5284612a2d565b81016020851015612b61578190505b612b75612b6d85612a2d565b830182612b14565b50505b505050565b600082821c905092915050565b6000612b9b60001984600802612b7d565b1980831691505092915050565b6000612bb48383612b8a565b9150826002028217905092915050565b612bcd826121a0565b67ffffffffffffffff811115612be657612be561243c565b5b612bf08254612802565b612bfb828285612b37565b600060209050601f831160018114612c2e5760008415612c1c578287015190505b612c268582612ba8565b865550612c8e565b601f198416612c3c86612a18565b60005b82811015612c6457848901518255600182019150602085019450602081019050612c3f565b86831015612c815784890151612c7d601f891682612b8a565b8355505b6001600288020188555050505b505050505050565b6000612cb1612cac612ca78461211c565b612a9c565b612252565b9050919050565b612cc181612c96565b82525050565b6000604082019050612cdc6000830185612cb8565b612ce9602083018461234c565b9392505050565b6000606082019050612d05600083018661234c565b612d126020830185612cb8565b612d1f604083018461234c565b949350505050565b6000604082019050612d3c600083018561234c565b612d4960208301846122b5565b9392505050565b600081519050919050565b600082825260208201905092915050565b6000612d7782612d50565b612d818185612d5b565b9350612d918185602086016121bc565b612d9a816121e6565b840191505092915050565b6000608082019050612dba60008301876122b5565b612dc760208301866122b5565b612dd4604083018561234c565b8181036060830152612de68184612d6c565b905095945050505050565b600081519050612e008161202f565b92915050565b600060208284031215612e1c57612e1b611ff9565b5b6000612e2a84828501612df1565b9150509291505056fea264697066735822122033c85a61471a98763bdf94b0ac051f8dd7f39d1cddd283b69b09d91c02f6357264736f6c634300081c003368747470733a2f2f676174657761792e6c69676874686f7573652e73746f726167652f697066732f6261667962656967737832676d667861757169746878707371797a6972716a667671667666377a6e636b707a6371677763357a68716e65706432712f",
  "linkReferences": {},
  "deployedLinkReferences": {}
}